{
  "contractName": "EqHunt",
  "abi": [
    {
      "inputs": [],
      "payable": true,
      "stateMutability": "payable",
      "type": "constructor"
    },
    {
      "payable": true,
      "stateMutability": "payable",
      "type": "fallback"
    },
    {
      "constant": true,
      "inputs": [
        {
          "internalType": "string",
          "name": "",
          "type": "string"
        },
        {
          "internalType": "uint256",
          "name": "",
          "type": "uint256"
        }
      ],
      "name": "solvers",
      "outputs": [
        {
          "internalType": "address",
          "name": "",
          "type": "address"
        }
      ],
      "payable": false,
      "stateMutability": "view",
      "type": "function"
    },
    {
      "constant": false,
      "inputs": [
        {
          "internalType": "string",
          "name": "_id",
          "type": "string"
        },
        {
          "internalType": "string",
          "name": "_repr",
          "type": "string"
        },
        {
          "internalType": "int256",
          "name": "_answer",
          "type": "int256"
        }
      ],
      "name": "create",
      "outputs": [],
      "payable": false,
      "stateMutability": "nonpayable",
      "type": "function"
    },
    {
      "constant": true,
      "inputs": [
        {
          "internalType": "string",
          "name": "_id",
          "type": "string"
        }
      ],
      "name": "getEquation",
      "outputs": [
        {
          "internalType": "string",
          "name": "",
          "type": "string"
        }
      ],
      "payable": false,
      "stateMutability": "view",
      "type": "function"
    },
    {
      "constant": true,
      "inputs": [
        {
          "internalType": "string",
          "name": "_id",
          "type": "string"
        },
        {
          "internalType": "int256",
          "name": "_answer",
          "type": "int256"
        }
      ],
      "name": "check",
      "outputs": [
        {
          "internalType": "bool",
          "name": "",
          "type": "bool"
        }
      ],
      "payable": false,
      "stateMutability": "view",
      "type": "function"
    },
    {
      "constant": false,
      "inputs": [
        {
          "internalType": "string",
          "name": "_id",
          "type": "string"
        },
        {
          "internalType": "int256",
          "name": "_answer",
          "type": "int256"
        }
      ],
      "name": "solve",
      "outputs": [
        {
          "internalType": "bool",
          "name": "",
          "type": "bool"
        }
      ],
      "payable": false,
      "stateMutability": "nonpayable",
      "type": "function"
    },
    {
      "constant": true,
      "inputs": [
        {
          "internalType": "string",
          "name": "_id",
          "type": "string"
        }
      ],
      "name": "getNumSolvers",
      "outputs": [
        {
          "internalType": "uint256",
          "name": "",
          "type": "uint256"
        }
      ],
      "payable": false,
      "stateMutability": "view",
      "type": "function"
    },
    {
      "constant": true,
      "inputs": [
        {
          "internalType": "string",
          "name": "_id",
          "type": "string"
        }
      ],
      "name": "getSolvers",
      "outputs": [
        {
          "internalType": "address[]",
          "name": "",
          "type": "address[]"
        }
      ],
      "payable": false,
      "stateMutability": "view",
      "type": "function"
    },
    {
      "constant": true,
      "inputs": [],
      "name": "testRand",
      "outputs": [
        {
          "internalType": "uint256",
          "name": "",
          "type": "uint256"
        }
      ],
      "payable": false,
      "stateMutability": "view",
      "type": "function"
    },
    {
      "constant": true,
      "inputs": [],
      "name": "testPayout",
      "outputs": [
        {
          "internalType": "uint256",
          "name": "",
          "type": "uint256"
        }
      ],
      "payable": false,
      "stateMutability": "view",
      "type": "function"
    },
    {
      "constant": false,
      "inputs": [
        {
          "internalType": "address payable",
          "name": "_payee",
          "type": "address"
        }
      ],
      "name": "testReward",
      "outputs": [],
      "payable": false,
      "stateMutability": "nonpayable",
      "type": "function"
    },
    {
      "constant": true,
      "inputs": [],
      "name": "getBalance",
      "outputs": [
        {
          "internalType": "uint256",
          "name": "",
          "type": "uint256"
        }
      ],
      "payable": false,
      "stateMutability": "view",
      "type": "function"
    },
    {
      "constant": true,
      "inputs": [
        {
          "internalType": "string",
          "name": "_id",
          "type": "string"
        }
      ],
      "name": "testHasSolved",
      "outputs": [
        {
          "internalType": "bool",
          "name": "",
          "type": "bool"
        }
      ],
      "payable": false,
      "stateMutability": "view",
      "type": "function"
    }
  ],
  "bytecode": "0x608060405233600360006101000a81548173ffffffffffffffffffffffffffffffffffffffff021916908373ffffffffffffffffffffffffffffffffffffffff1602179055503460028190555061145b8061005b6000396000f3fe6080604052600436106100a75760003560e01c806387e831e41161006457806387e831e414610661578063a7d842c41461068c578063ade3042c1461079e578063ae98b1fd1461087e578063c413fdf3146108cf578063ef37ada6146108fa576100a7565b806312065fe0146100a957806321268d48146100d45780633f3225a414610215578063475f432a146103325780635e6f358c1461049b57806370f2720714610585575b005b3480156100b557600080fd5b506100be6109e4565b6040518082815260200191505060405180910390f35b3480156100e057600080fd5b5061019a600480360360208110156100f757600080fd5b810190808035906020019064010000000081111561011457600080fd5b82018360208201111561012657600080fd5b8035906020019184600183028401116401000000008311171561014857600080fd5b91908080601f016020809104026020016040519081016040528093929190818152602001838380828437600081840152601f19601f8201169050808301925050505050505091929192905050506109ee565b6040518080602001828103825283818151815260200191508051906020019080838360005b838110156101da5780820151818401526020810190506101bf565b50505050905090810190601f1680156102075780820380516001836020036101000a031916815260200191505b509250505060405180910390f35b34801561022157600080fd5b506102db6004803603602081101561023857600080fd5b810190808035906020019064010000000081111561025557600080fd5b82018360208201111561026757600080fd5b8035906020019184600183028401116401000000008311171561028957600080fd5b91908080601f016020809104026020016040519081016040528093929190818152602001838380828437600081840152601f19601f820116905080830192505050505050509192919290505050610afc565b6040518080602001828103825283818151815260200191508051906020019060200280838360005b8381101561031e578082015181840152602081019050610303565b505050509050019250505060405180910390f35b34801561033e57600080fd5b506104996004803603606081101561035557600080fd5b810190808035906020019064010000000081111561037257600080fd5b82018360208201111561038457600080fd5b803590602001918460018302840111640100000000831117156103a657600080fd5b91908080601f016020809104026020016040519081016040528093929190818152602001838380828437600081840152601f19601f8201169050808301925050505050505091929192908035906020019064010000000081111561040957600080fd5b82018360208201111561041b57600080fd5b8035906020019184600183028401116401000000008311171561043d57600080fd5b91908080601f016020809104026020016040519081016040528093929190818152602001838380828437600081840152601f19601f82011690508083019250505050505050919291929080359060200190929190505050610bf3565b005b3480156104a757600080fd5b5061056b600480360360408110156104be57600080fd5b81019080803590602001906401000000008111156104db57600080fd5b8201836020820111156104ed57600080fd5b8035906020019184600183028401116401000000008311171561050f57600080fd5b91908080601f016020809104026020016040519081016040528093929190818152602001838380828437600081840152601f19601f82011690508083019250505050505050919291929080359060200190929190505050610d59565b604051808215151515815260200191505060405180910390f35b34801561059157600080fd5b5061064b600480360360208110156105a857600080fd5b81019080803590602001906401000000008111156105c557600080fd5b8201836020820111156105d757600080fd5b803590602001918460018302840111640100000000831117156105f957600080fd5b91908080601f016020809104026020016040519081016040528093929190818152602001838380828437600081840152601f19601f820116905080830192505050505050509192919290505050610e65565b6040518082815260200191505060405180910390f35b34801561066d57600080fd5b50610676610f63565b6040518082815260200191505060405180910390f35b34801561069857600080fd5b5061075c600480360360408110156106af57600080fd5b81019080803590602001906401000000008111156106cc57600080fd5b8201836020820111156106de57600080fd5b8035906020019184600183028401116401000000008311171561070057600080fd5b91908080601f016020809104026020016040519081016040528093929190818152602001838380828437600081840152601f19601f82011690508083019250505050505050919291929080359060200190929190505050610f72565b604051808273ffffffffffffffffffffffffffffffffffffffff1673ffffffffffffffffffffffffffffffffffffffff16815260200191505060405180910390f35b3480156107aa57600080fd5b50610864600480360360208110156107c157600080fd5b81019080803590602001906401000000008111156107de57600080fd5b8201836020820111156107f057600080fd5b8035906020019184600183028401116401000000008311171561081257600080fd5b91908080601f016020809104026020016040519081016040528093929190818152602001838380828437600081840152601f19601f820116905080830192505050505050509192919290505050610fd3565b604051808215151515815260200191505060405180910390f35b34801561088a57600080fd5b506108cd600480360360208110156108a157600080fd5b81019080803573ffffffffffffffffffffffffffffffffffffffff169060200190929190505050610fe5565b005b3480156108db57600080fd5b506108e4610ff1565b6040518082815260200191505060405180910390f35b34801561090657600080fd5b506109ca6004803603604081101561091d57600080fd5b810190808035906020019064010000000081111561093a57600080fd5b82018360208201111561094c57600080fd5b8035906020019184600183028401116401000000008311171561096e57600080fd5b91908080601f016020809104026020016040519081016040528093929190818152602001838380828437600081840152601f19601f82011690508083019250505050505050919291929080359060200190929190505050611000565b604051808215151515815260200191505060405180910390f35b6000600254905090565b60606000826040518082805190602001908083835b60208310610a265780518252602082019150602081019050602083039250610a03565b6001836020036101000a03801982511681845116808217855250505050505090500191505090815260200160405180910390206000018054600181600116156101000203166002900480601f016020809104026020016040519081016040528092919081815260200182805460018160011615610100020316600290048015610af05780601f10610ac557610100808354040283529160200191610af0565b820191906000526020600020905b815481529060010190602001808311610ad357829003601f168201915b50505050509050919050565b60606001826040518082805190602001908083835b60208310610b345780518252602082019150602081019050602083039250610b11565b6001836020036101000a0380198251168184511680821785525050505050509050019150509081526020016040518091039020805480602002602001604051908101604052809291908181526020018280548015610be757602002820191906000526020600020905b8160009054906101000a900473ffffffffffffffffffffffffffffffffffffffff1673ffffffffffffffffffffffffffffffffffffffff1681526020019060010190808311610b9d575b50505050509050919050565b6000836040518082805190602001908083835b60208310610c295780518252602082019150602081019050602083039250610c06565b6001836020036101000a038019825116818451168082178552505050505050905001915050908152602001604051809103902060020160009054906101000a900460ff1615610c7757600080fd5b610c7f61135e565b6040518060600160405280848152602001838152602001600115158152509050806000856040518082805190602001908083835b60208310610cd65780518252602082019150602081019050602083039250610cb3565b6001836020036101000a03801982511681845116808217855250505050505090500191505090815260200160405180910390206000820151816000019080519060200190610d25929190611381565b506020820151816001015560408201518160020160006101000a81548160ff02191690831515021790555090505050505050565b600080836040518082805190602001908083835b60208310610d905780518252602082019150602081019050602083039250610d6d565b6001836020036101000a038019825116818451168082178552505050505050905001915050908152602001604051809103902060020160009054906101000a900460ff16610ddd57600080fd5b816000846040518082805190602001908083835b60208310610e145780518252602082019150602081019050602083039250610df1565b6001836020036101000a0380198251168184511680821785525050505050509050019150509081526020016040518091039020600101541415610e5a5760019050610e5f565b600090505b92915050565b600060606001836040518082805190602001908083835b60208310610e9f5780518252602082019150602081019050602083039250610e7c565b6001836020036101000a0380198251168184511680821785525050505050509050019150509081526020016040518091039020805480602002602001604051908101604052809291908181526020018280548015610f5257602002820191906000526020600020905b8160009054906101000a900473ffffffffffffffffffffffffffffffffffffffff1673ffffffffffffffffffffffffffffffffffffffff1681526020019060010190808311610f08575b505050505090508051915050919050565b6000610f6d61104d565b905090565b6001828051602081018201805184825260208301602085012081835280955050505050508181548110610fa157fe5b906000526020600020016000915091509054906101000a900473ffffffffffffffffffffffffffffffffffffffff1681565b6000610fde8261108b565b9050919050565b610fee816111f9565b50565b6000610ffb61126f565b905090565b600061100b8361108b565b1561101557600080fd5b60006110218484610d59565b90508061102d57600080fd5b80156110465761103c8461128e565b611045336111f9565b5b5092915050565b60006001600a42604051602001808281526020019150506040516020818303038152906040528051906020012060001c8161108457fe5b0601905090565b600060606001836040518082805190602001908083835b602083106110c557805182526020820191506020810190506020830392506110a2565b6001836020036101000a038019825116818451168082178552505050505050905001915050908152602001604051809103902080548060200260200160405190810160405280929190818152602001828054801561117857602002820191906000526020600020905b8160009054906101000a900473ffffffffffffffffffffffffffffffffffffffff1673ffffffffffffffffffffffffffffffffffffffff168152602001906001019080831161112e575b5050505050905060008090505b81518110156111ed573373ffffffffffffffffffffffffffffffffffffffff168282815181106111b157fe5b602002602001015173ffffffffffffffffffffffffffffffffffffffff1614156111e0576001925050506111f4565b8080600101915050611185565b5060009150505b919050565b600061120361126f565b905080600254101561121457600080fd5b8173ffffffffffffffffffffffffffffffffffffffff166108fc829081150290604051600060405180830381858888f1935050505015801561125a573d6000803e3d6000fd5b50806002600082825403925050819055505050565b600061127961104d565b668e1bc9bf0400008161128857fe5b04905090565b6001816040518082805190602001908083835b602083106112c457805182526020820191506020810190506020830392506112a1565b6001836020036101000a03801982511681845116808217855250505050505090500191505090815260200160405180910390203390806001815401808255809150509060018203906000526020600020016000909192909190916101000a81548173ffffffffffffffffffffffffffffffffffffffff021916908373ffffffffffffffffffffffffffffffffffffffff1602179055505050565b604051806060016040528060608152602001600081526020016000151581525090565b828054600181600116156101000203166002900490600052602060002090601f016020900481019282601f106113c257805160ff19168380011785556113f0565b828001600101855582156113f0579182015b828111156113ef5782518255916020019190600101906113d4565b5b5090506113fd9190611401565b5090565b61142391905b8082111561141f576000816000905550600101611407565b5090565b9056fea265627a7a72315820b12a54a72cb68040fb706f177b3defb5ca71c8d7491a27e6e8ae03775d3a34e164736f6c634300050c0032",
  "source": "pragma solidity >=0.4.21 <0.6.0;\n\ncontract EqHunt {\n\n  struct Equation {\n    string repr;\n    int answer;\n    bool exists;\n  }\n\n  mapping(string => Equation) equations;\n  mapping(string => address[]) public solvers;\n  uint256 private balance;\n  address private owner;\n\n  constructor() public payable {\n    owner = msg.sender;\n    balance = msg.value;\n  }\n\n  function create(string memory _id, string memory _repr, int _answer) public {\n\n    require(!equations[_id].exists);\n\n    Equation memory e = Equation(_repr, _answer, true);\n\n    equations[_id] = e;\n\n  }\n\n  function getEquation(string memory _id) public view returns(string memory) {\n    return equations[_id].repr;\n  }\n\n  function check(string memory _id, int _answer) public view returns(bool) {\n\n    require(equations[_id].exists);\n\n    if(equations[_id].answer == _answer) {\n      return true;\n    } else {\n      return false;\n    }\n  }\n\n  function rand() internal view returns(uint256) {\n    return uint256(uint256(keccak256(abi.encode(block.timestamp)))%10) + 1;\n  }\n\n  function payout() internal view returns(uint256) {\n    return 40000000000000000/rand();\n  }\n\n  function reward(address payable _payee) internal {\n\n    uint256 r = payout();\n\n    require(balance>=r);\n\n    _payee.transfer(r);\n    balance -= r;\n  }\n\n  function solve(string memory _id, int256 _answer) public returns(bool) {\n    require(!hasSolved(_id));\n    bool correct = check(_id, _answer);\n    require(correct);\n    if(correct) {\n      addSolver(_id);\n      reward(msg.sender);\n    }\n  }\n\n  function addSolver(string memory _id) internal {\n    solvers[_id].push(msg.sender);\n  }\n\n  function hasSolved(string memory _id) internal view returns(bool) {\n    address[] memory _solvers = solvers[_id];\n    for(uint256 i=0; i<_solvers.length; i++) {\n      if(_solvers[i] == msg.sender) {\n        return true;\n      }\n    }\n    return false;\n  }\n\n  function getNumSolvers(string memory _id) public view returns(uint256) {\n    address[] memory _solvers = solvers[_id];\n    return _solvers.length;\n  }\n\n  function getSolvers(string memory _id) public view returns(address[] memory) {\n    return solvers[_id];\n  }\n\n  function() payable external {}\n\n  // TEST CODE\n\n  function testRand() public view returns(uint256) {\n    return rand();\n  }\n\n  function testPayout() public view returns(uint256) {\n    return payout();\n  }\n\n  function testReward(address payable _payee) public {\n    reward(_payee);\n  }\n\n  function getBalance() public view returns (uint256) {\n    return balance;\n  }\n\n  function testHasSolved(string memory _id) public view returns(bool) {\n    return hasSolved(_id);\n  }\n\n}\n",
  "sourcePath": "/home/wes/eq-hunt/contracts/EqHunt.sol",
  "compiler": {
    "name": "solc",
    "version": "0.5.12+commit.7709ece9.Emscripten.clang"
  },
  "schemaVersion": "3.0.19",
  "updatedAt": "2019-12-22T03:57:14.726Z",
  "devdoc": {
    "methods": {}
  },
  "userdoc": {
    "methods": {}
  }
}